{
  "_format": "hh-sol-artifact-1",
  "contractName": "NFT",
  "sourceName": "contracts/NFT.sol",
  "abi": [
    {
      "inputs": [],
      "stateMutability": "nonpayable",
      "type": "constructor"
    },
    {
      "anonymous": false,
      "inputs": [
        {
          "indexed": true,
          "internalType": "address",
          "name": "owner",
          "type": "address"
        },
        {
          "indexed": true,
          "internalType": "address",
          "name": "approved",
          "type": "address"
        },
        {
          "indexed": true,
          "internalType": "uint256",
          "name": "tokenId",
          "type": "uint256"
        }
      ],
      "name": "Approval",
      "type": "event"
    },
    {
      "anonymous": false,
      "inputs": [
        {
          "indexed": true,
          "internalType": "address",
          "name": "owner",
          "type": "address"
        },
        {
          "indexed": true,
          "internalType": "address",
          "name": "operator",
          "type": "address"
        },
        {
          "indexed": false,
          "internalType": "bool",
          "name": "approved",
          "type": "bool"
        }
      ],
      "name": "ApprovalForAll",
      "type": "event"
    },
    {
      "anonymous": false,
      "inputs": [
        {
          "indexed": true,
          "internalType": "address",
          "name": "from",
          "type": "address"
        },
        {
          "indexed": true,
          "internalType": "address",
          "name": "to",
          "type": "address"
        },
        {
          "indexed": true,
          "internalType": "uint256",
          "name": "tokenId",
          "type": "uint256"
        }
      ],
      "name": "Transfer",
      "type": "event"
    },
    {
      "inputs": [
        {
          "internalType": "address",
          "name": "to",
          "type": "address"
        },
        {
          "internalType": "uint256",
          "name": "tokenId",
          "type": "uint256"
        }
      ],
      "name": "approve",
      "outputs": [],
      "stateMutability": "nonpayable",
      "type": "function"
    },
    {
      "inputs": [
        {
          "internalType": "address",
          "name": "owner",
          "type": "address"
        }
      ],
      "name": "balanceOf",
      "outputs": [
        {
          "internalType": "uint256",
          "name": "",
          "type": "uint256"
        }
      ],
      "stateMutability": "view",
      "type": "function"
    },
    {
      "inputs": [
        {
          "internalType": "uint256",
          "name": "tokenId",
          "type": "uint256"
        }
      ],
      "name": "getApproved",
      "outputs": [
        {
          "internalType": "address",
          "name": "",
          "type": "address"
        }
      ],
      "stateMutability": "view",
      "type": "function"
    },
    {
      "inputs": [
        {
          "internalType": "address",
          "name": "owner",
          "type": "address"
        },
        {
          "internalType": "address",
          "name": "operator",
          "type": "address"
        }
      ],
      "name": "isApprovedForAll",
      "outputs": [
        {
          "internalType": "bool",
          "name": "",
          "type": "bool"
        }
      ],
      "stateMutability": "view",
      "type": "function"
    },
    {
      "inputs": [],
      "name": "name",
      "outputs": [
        {
          "internalType": "string",
          "name": "",
          "type": "string"
        }
      ],
      "stateMutability": "view",
      "type": "function"
    },
    {
      "inputs": [
        {
          "internalType": "uint256",
          "name": "tokenId",
          "type": "uint256"
        }
      ],
      "name": "ownerOf",
      "outputs": [
        {
          "internalType": "address",
          "name": "",
          "type": "address"
        }
      ],
      "stateMutability": "view",
      "type": "function"
    },
    {
      "inputs": [
        {
          "internalType": "string",
          "name": "uri",
          "type": "string"
        }
      ],
      "name": "safeMint",
      "outputs": [
        {
          "internalType": "uint256",
          "name": "",
          "type": "uint256"
        }
      ],
      "stateMutability": "nonpayable",
      "type": "function"
    },
    {
      "inputs": [
        {
          "internalType": "address",
          "name": "from",
          "type": "address"
        },
        {
          "internalType": "address",
          "name": "to",
          "type": "address"
        },
        {
          "internalType": "uint256",
          "name": "tokenId",
          "type": "uint256"
        }
      ],
      "name": "safeTransferFrom",
      "outputs": [],
      "stateMutability": "nonpayable",
      "type": "function"
    },
    {
      "inputs": [
        {
          "internalType": "address",
          "name": "from",
          "type": "address"
        },
        {
          "internalType": "address",
          "name": "to",
          "type": "address"
        },
        {
          "internalType": "uint256",
          "name": "tokenId",
          "type": "uint256"
        },
        {
          "internalType": "bytes",
          "name": "data",
          "type": "bytes"
        }
      ],
      "name": "safeTransferFrom",
      "outputs": [],
      "stateMutability": "nonpayable",
      "type": "function"
    },
    {
      "inputs": [
        {
          "internalType": "address",
          "name": "operator",
          "type": "address"
        },
        {
          "internalType": "bool",
          "name": "approved",
          "type": "bool"
        }
      ],
      "name": "setApprovalForAll",
      "outputs": [],
      "stateMutability": "nonpayable",
      "type": "function"
    },
    {
      "inputs": [
        {
          "internalType": "bytes4",
          "name": "interfaceId",
          "type": "bytes4"
        }
      ],
      "name": "supportsInterface",
      "outputs": [
        {
          "internalType": "bool",
          "name": "",
          "type": "bool"
        }
      ],
      "stateMutability": "view",
      "type": "function"
    },
    {
      "inputs": [],
      "name": "symbol",
      "outputs": [
        {
          "internalType": "string",
          "name": "",
          "type": "string"
        }
      ],
      "stateMutability": "view",
      "type": "function"
    },
    {
      "inputs": [
        {
          "internalType": "uint256",
          "name": "tokenId",
          "type": "uint256"
        }
      ],
      "name": "tokenURI",
      "outputs": [
        {
          "internalType": "string",
          "name": "",
          "type": "string"
        }
      ],
      "stateMutability": "view",
      "type": "function"
    },
    {
      "inputs": [
        {
          "internalType": "address",
          "name": "from",
          "type": "address"
        },
        {
          "internalType": "address",
          "name": "to",
          "type": "address"
        },
        {
          "internalType": "uint256",
          "name": "tokenId",
          "type": "uint256"
        }
      ],
      "name": "transferFrom",
      "outputs": [],
      "stateMutability": "nonpayable",
      "type": "function"
    }
  ],
  "bytecode": "0x60806040523480156200001157600080fd5b506040518060400160405280600581526020017f4d794e46540000000000000000000000000000000000000000000000000000008152506040518060400160405280600381526020017f4e4654000000000000000000000000000000000000000000000000000000000081525081600090816200008f919062000324565b508060019081620000a1919062000324565b5050506200040b565b600081519050919050565b7f4e487b7100000000000000000000000000000000000000000000000000000000600052604160045260246000fd5b7f4e487b7100000000000000000000000000000000000000000000000000000000600052602260045260246000fd5b600060028204905060018216806200012c57607f821691505b602082108103620001425762000141620000e4565b5b50919050565b60008190508160005260206000209050919050565b60006020601f8301049050919050565b600082821b905092915050565b600060088302620001ac7fffffffffffffffffffffffffffffffffffffffffffffffffffffffffffffffff826200016d565b620001b886836200016d565b95508019841693508086168417925050509392505050565b6000819050919050565b6000819050919050565b600062000205620001ff620001f984620001d0565b620001da565b620001d0565b9050919050565b6000819050919050565b6200022183620001e4565b6200023962000230826200020c565b8484546200017a565b825550505050565b600090565b6200025062000241565b6200025d81848462000216565b505050565b5b8181101562000285576200027960008262000246565b60018101905062000263565b5050565b601f821115620002d4576200029e8162000148565b620002a9846200015d565b81016020851015620002b9578190505b620002d1620002c8856200015d565b83018262000262565b50505b505050565b600082821c905092915050565b6000620002f960001984600802620002d9565b1980831691505092915050565b6000620003148383620002e6565b9150826002028217905092915050565b6200032f82620000aa565b67ffffffffffffffff8111156200034b576200034a620000b5565b5b62000357825462000113565b6200036482828562000289565b600060209050601f8311600181146200039c576000841562000387578287015190505b62000393858262000306565b86555062000403565b601f198416620003ac8662000148565b60005b82811015620003d657848901518255600182019150602085019450602081019050620003af565b86831015620003f65784890151620003f2601f891682620002e6565b8355505b6001600288020188555050505b505050505050565b612b05806200041b6000396000f3fe608060405234801561001057600080fd5b50600436106100ea5760003560e01c8063695850fb1161008c578063a22cb46511610066578063a22cb4651461026f578063b88d4fde1461028b578063c87b56dd146102a7578063e985e9c5146102d7576100ea565b8063695850fb146101f157806370a082311461022157806395d89b4114610251576100ea565b8063095ea7b3116100c8578063095ea7b31461016d57806323b872dd1461018957806342842e0e146101a55780636352211e146101c1576100ea565b806301ffc9a7146100ef57806306fdde031461011f578063081812fc1461013d575b600080fd5b61010960048036038101906101049190611990565b610307565b60405161011691906119d8565b60405180910390f35b6101276103e9565b6040516101349190611a83565b60405180910390f35b61015760048036038101906101529190611adb565b61047b565b6040516101649190611b49565b60405180910390f35b61018760048036038101906101829190611b90565b6104c1565b005b6101a3600480360381019061019e9190611bd0565b6105d8565b005b6101bf60048036038101906101ba9190611bd0565b610638565b005b6101db60048036038101906101d69190611adb565b610658565b6040516101e89190611b49565b60405180910390f35b61020b60048036038101906102069190611d58565b6106de565b6040516102189190611db0565b60405180910390f35b61023b60048036038101906102369190611dcb565b61071a565b6040516102489190611db0565b60405180910390f35b6102596107d1565b6040516102669190611a83565b60405180910390f35b61028960048036038101906102849190611e24565b610863565b005b6102a560048036038101906102a09190611f05565b610879565b005b6102c160048036038101906102bc9190611adb565b6108db565b6040516102ce9190611a83565b60405180910390f35b6102f160048036038101906102ec9190611f88565b6109ed565b6040516102fe91906119d8565b60405180910390f35b60007f80ac58cd000000000000000000000000000000000000000000000000000000007bffffffffffffffffffffffffffffffffffffffffffffffffffffffff1916827bffffffffffffffffffffffffffffffffffffffffffffffffffffffff191614806103d257507f5b5e139f000000000000000000000000000000000000000000000000000000007bffffffffffffffffffffffffffffffffffffffffffffffffffffffff1916827bffffffffffffffffffffffffffffffffffffffffffffffffffffffff1916145b806103e257506103e182610a81565b5b9050919050565b6060600080546103f890611ff7565b80601f016020809104026020016040519081016040528092919081815260200182805461042490611ff7565b80156104715780601f1061044657610100808354040283529160200191610471565b820191906000526020600020905b81548152906001019060200180831161045457829003601f168201915b5050505050905090565b600061048682610aeb565b6004600083815260200190815260200160002060009054906101000a900473ffffffffffffffffffffffffffffffffffffffff169050919050565b60006104cc82610658565b90508073ffffffffffffffffffffffffffffffffffffffff168373ffffffffffffffffffffffffffffffffffffffff160361053c576040517f08c379a00000000000000000000000000000000000000000000000000000000081526004016105339061209a565b60405180910390fd5b8073ffffffffffffffffffffffffffffffffffffffff1661055b610b36565b73ffffffffffffffffffffffffffffffffffffffff16148061058a575061058981610584610b36565b6109ed565b5b6105c9576040517f08c379a00000000000000000000000000000000000000000000000000000000081526004016105c09061212c565b60405180910390fd5b6105d38383610b3e565b505050565b6105e96105e3610b36565b82610bf7565b610628576040517f08c379a000000000000000000000000000000000000000000000000000000000815260040161061f906121be565b60405180910390fd5b610633838383610c8c565b505050565b61065383838360405180602001604052806000815250610879565b505050565b60008061066483610f85565b9050600073ffffffffffffffffffffffffffffffffffffffff168173ffffffffffffffffffffffffffffffffffffffff16036106d5576040517f08c379a00000000000000000000000000000000000000000000000000000000081526004016106cc9061222a565b60405180910390fd5b80915050919050565b6000600760008154809291906106f390612279565b919050555061070433600754610fc2565b61071060075483610fe0565b6007549050919050565b60008073ffffffffffffffffffffffffffffffffffffffff168273ffffffffffffffffffffffffffffffffffffffff160361078a576040517f08c379a000000000000000000000000000000000000000000000000000000000815260040161078190612333565b60405180910390fd5b600360008373ffffffffffffffffffffffffffffffffffffffff1673ffffffffffffffffffffffffffffffffffffffff168152602001908152602001600020549050919050565b6060600180546107e090611ff7565b80601f016020809104026020016040519081016040528092919081815260200182805461080c90611ff7565b80156108595780601f1061082e57610100808354040283529160200191610859565b820191906000526020600020905b81548152906001019060200180831161083c57829003601f168201915b5050505050905090565b61087561086e610b36565b838361104d565b5050565b61088a610884610b36565b83610bf7565b6108c9576040517f08c379a00000000000000000000000000000000000000000000000000000000081526004016108c0906121be565b60405180910390fd5b6108d5848484846111b9565b50505050565b60606108e682610aeb565b600060066000848152602001908152602001600020805461090690611ff7565b80601f016020809104026020016040519081016040528092919081815260200182805461093290611ff7565b801561097f5780601f106109545761010080835404028352916020019161097f565b820191906000526020600020905b81548152906001019060200180831161096257829003601f168201915b505050505090506000610990611215565b905060008151036109a55781925050506109e8565b6000825111156109da5780826040516020016109c292919061238f565b604051602081830303815290604052925050506109e8565b6109e38461122c565b925050505b919050565b6000600560008473ffffffffffffffffffffffffffffffffffffffff1673ffffffffffffffffffffffffffffffffffffffff16815260200190815260200160002060008373ffffffffffffffffffffffffffffffffffffffff1673ffffffffffffffffffffffffffffffffffffffff16815260200190815260200160002060009054906101000a900460ff16905092915050565b60007f01ffc9a7000000000000000000000000000000000000000000000000000000007bffffffffffffffffffffffffffffffffffffffffffffffffffffffff1916827bffffffffffffffffffffffffffffffffffffffffffffffffffffffff1916149050919050565b610af481611294565b610b33576040517f08c379a0000000000000000000000000000000000000000000000000000000008152600401610b2a9061222a565b60405180910390fd5b50565b600033905090565b816004600083815260200190815260200160002060006101000a81548173ffffffffffffffffffffffffffffffffffffffff021916908373ffffffffffffffffffffffffffffffffffffffff160217905550808273ffffffffffffffffffffffffffffffffffffffff16610bb183610658565b73ffffffffffffffffffffffffffffffffffffffff167f8c5be1e5ebec7d5bd14f71427d1e84f3dd0314c0f7b2291e5b200ac8c7c3b92560405160405180910390a45050565b600080610c0383610658565b90508073ffffffffffffffffffffffffffffffffffffffff168473ffffffffffffffffffffffffffffffffffffffff161480610c455750610c4481856109ed565b5b80610c8357508373ffffffffffffffffffffffffffffffffffffffff16610c6b8461047b565b73ffffffffffffffffffffffffffffffffffffffff16145b91505092915050565b8273ffffffffffffffffffffffffffffffffffffffff16610cac82610658565b73ffffffffffffffffffffffffffffffffffffffff1614610d02576040517f08c379a0000000000000000000000000000000000000000000000000000000008152600401610cf990612425565b60405180910390fd5b600073ffffffffffffffffffffffffffffffffffffffff168273ffffffffffffffffffffffffffffffffffffffff1603610d71576040517f08c379a0000000000000000000000000000000000000000000000000000000008152600401610d68906124b7565b60405180910390fd5b610d7e83838360016112d5565b8273ffffffffffffffffffffffffffffffffffffffff16610d9e82610658565b73ffffffffffffffffffffffffffffffffffffffff1614610df4576040517f08c379a0000000000000000000000000000000000000000000000000000000008152600401610deb90612425565b60405180910390fd5b6004600082815260200190815260200160002060006101000a81549073ffffffffffffffffffffffffffffffffffffffff02191690556001600360008573ffffffffffffffffffffffffffffffffffffffff1673ffffffffffffffffffffffffffffffffffffffff168152602001908152602001600020600082825403925050819055506001600360008473ffffffffffffffffffffffffffffffffffffffff1673ffffffffffffffffffffffffffffffffffffffff16815260200190815260200160002060008282540192505081905550816002600083815260200190815260200160002060006101000a81548173ffffffffffffffffffffffffffffffffffffffff021916908373ffffffffffffffffffffffffffffffffffffffff160217905550808273ffffffffffffffffffffffffffffffffffffffff168473ffffffffffffffffffffffffffffffffffffffff167fddf252ad1be2c89b69c2b068fc378daa952ba7f163c4a11628f55a4df523b3ef60405160405180910390a4610f8083838360016112db565b505050565b60006002600083815260200190815260200160002060009054906101000a900473ffffffffffffffffffffffffffffffffffffffff169050919050565b610fdc8282604051806020016040528060008152506112e1565b5050565b610fe982611294565b611028576040517f08c379a000000000000000000000000000000000000000000000000000000000815260040161101f90612549565b60405180910390fd5b806006600084815260200190815260200160002090816110489190612715565b505050565b8173ffffffffffffffffffffffffffffffffffffffff168373ffffffffffffffffffffffffffffffffffffffff16036110bb576040517f08c379a00000000000000000000000000000000000000000000000000000000081526004016110b290612833565b60405180910390fd5b80600560008573ffffffffffffffffffffffffffffffffffffffff1673ffffffffffffffffffffffffffffffffffffffff16815260200190815260200160002060008473ffffffffffffffffffffffffffffffffffffffff1673ffffffffffffffffffffffffffffffffffffffff16815260200190815260200160002060006101000a81548160ff0219169083151502179055508173ffffffffffffffffffffffffffffffffffffffff168373ffffffffffffffffffffffffffffffffffffffff167f17307eab39ab6107e8899845ad3d59bd9653f200f220920489ca2b5937696c31836040516111ac91906119d8565b60405180910390a3505050565b6111c4848484610c8c565b6111d08484848461133c565b61120f576040517f08c379a0000000000000000000000000000000000000000000000000000000008152600401611206906128c5565b60405180910390fd5b50505050565b606060405180602001604052806000815250905090565b606061123782610aeb565b6000611241611215565b90506000815111611261576040518060200160405280600081525061128c565b8061126b846114c3565b60405160200161127c92919061238f565b6040516020818303038152906040525b915050919050565b60008073ffffffffffffffffffffffffffffffffffffffff166112b683610f85565b73ffffffffffffffffffffffffffffffffffffffff1614159050919050565b50505050565b50505050565b6112eb8383611591565b6112f8600084848461133c565b611337576040517f08c379a000000000000000000000000000000000000000000000000000000000815260040161132e906128c5565b60405180910390fd5b505050565b600061135d8473ffffffffffffffffffffffffffffffffffffffff166117ae565b156114b6578373ffffffffffffffffffffffffffffffffffffffff1663150b7a02611386610b36565b8786866040518563ffffffff1660e01b81526004016113a8949392919061293a565b6020604051808303816000875af19250505080156113e457506040513d601f19601f820116820180604052508101906113e1919061299b565b60015b611466573d8060008114611414576040519150601f19603f3d011682016040523d82523d6000602084013e611419565b606091505b50600081510361145e576040517f08c379a0000000000000000000000000000000000000000000000000000000008152600401611455906128c5565b60405180910390fd5b805181602001fd5b63150b7a0260e01b7bffffffffffffffffffffffffffffffffffffffffffffffffffffffff1916817bffffffffffffffffffffffffffffffffffffffffffffffffffffffff1916149150506114bb565b600190505b949350505050565b6060600060016114d2846117d1565b01905060008167ffffffffffffffff8111156114f1576114f0611c2d565b5b6040519080825280601f01601f1916602001820160405280156115235781602001600182028036833780820191505090505b509050600082602001820190505b600115611586578080600190039150507f3031323334353637383961626364656600000000000000000000000000000000600a86061a8153600a858161157a576115796129c8565b5b04945060008503611531575b819350505050919050565b600073ffffffffffffffffffffffffffffffffffffffff168273ffffffffffffffffffffffffffffffffffffffff1603611600576040517f08c379a00000000000000000000000000000000000000000000000000000000081526004016115f790612a43565b60405180910390fd5b61160981611294565b15611649576040517f08c379a000000000000000000000000000000000000000000000000000000000815260040161164090612aaf565b60405180910390fd5b6116576000838360016112d5565b61166081611294565b156116a0576040517f08c379a000000000000000000000000000000000000000000000000000000000815260040161169790612aaf565b60405180910390fd5b6001600360008473ffffffffffffffffffffffffffffffffffffffff1673ffffffffffffffffffffffffffffffffffffffff16815260200190815260200160002060008282540192505081905550816002600083815260200190815260200160002060006101000a81548173ffffffffffffffffffffffffffffffffffffffff021916908373ffffffffffffffffffffffffffffffffffffffff160217905550808273ffffffffffffffffffffffffffffffffffffffff16600073ffffffffffffffffffffffffffffffffffffffff167fddf252ad1be2c89b69c2b068fc378daa952ba7f163c4a11628f55a4df523b3ef60405160405180910390a46117aa6000838360016112db565b5050565b6000808273ffffffffffffffffffffffffffffffffffffffff163b119050919050565b600080600090507a184f03e93ff9f4daa797ed6e38ed64bf6a1f010000000000000000831061182f577a184f03e93ff9f4daa797ed6e38ed64bf6a1f0100000000000000008381611825576118246129c8565b5b0492506040810190505b6d04ee2d6d415b85acef8100000000831061186c576d04ee2d6d415b85acef81000000008381611862576118616129c8565b5b0492506020810190505b662386f26fc10000831061189b57662386f26fc100008381611891576118906129c8565b5b0492506010810190505b6305f5e10083106118c4576305f5e10083816118ba576118b96129c8565b5b0492506008810190505b61271083106118e95761271083816118df576118de6129c8565b5b0492506004810190505b6064831061190c5760648381611902576119016129c8565b5b0492506002810190505b600a831061191b576001810190505b80915050919050565b6000604051905090565b600080fd5b600080fd5b60007fffffffff0000000000000000000000000000000000000000000000000000000082169050919050565b61196d81611938565b811461197857600080fd5b50565b60008135905061198a81611964565b92915050565b6000602082840312156119a6576119a561192e565b5b60006119b48482850161197b565b91505092915050565b60008115159050919050565b6119d2816119bd565b82525050565b60006020820190506119ed60008301846119c9565b92915050565b600081519050919050565b600082825260208201905092915050565b60005b83811015611a2d578082015181840152602081019050611a12565b60008484015250505050565b6000601f19601f8301169050919050565b6000611a55826119f3565b611a5f81856119fe565b9350611a6f818560208601611a0f565b611a7881611a39565b840191505092915050565b60006020820190508181036000830152611a9d8184611a4a565b905092915050565b6000819050919050565b611ab881611aa5565b8114611ac357600080fd5b50565b600081359050611ad581611aaf565b92915050565b600060208284031215611af157611af061192e565b5b6000611aff84828501611ac6565b91505092915050565b600073ffffffffffffffffffffffffffffffffffffffff82169050919050565b6000611b3382611b08565b9050919050565b611b4381611b28565b82525050565b6000602082019050611b5e6000830184611b3a565b92915050565b611b6d81611b28565b8114611b7857600080fd5b50565b600081359050611b8a81611b64565b92915050565b60008060408385031215611ba757611ba661192e565b5b6000611bb585828601611b7b565b9250506020611bc685828601611ac6565b9150509250929050565b600080600060608486031215611be957611be861192e565b5b6000611bf786828701611b7b565b9350506020611c0886828701611b7b565b9250506040611c1986828701611ac6565b9150509250925092565b600080fd5b600080fd5b7f4e487b7100000000000000000000000000000000000000000000000000000000600052604160045260246000fd5b611c6582611a39565b810181811067ffffffffffffffff82111715611c8457611c83611c2d565b5b80604052505050565b6000611c97611924565b9050611ca38282611c5c565b919050565b600067ffffffffffffffff821115611cc357611cc2611c2d565b5b611ccc82611a39565b9050602081019050919050565b82818337600083830152505050565b6000611cfb611cf684611ca8565b611c8d565b905082815260208101848484011115611d1757611d16611c28565b5b611d22848285611cd9565b509392505050565b600082601f830112611d3f57611d3e611c23565b5b8135611d4f848260208601611ce8565b91505092915050565b600060208284031215611d6e57611d6d61192e565b5b600082013567ffffffffffffffff811115611d8c57611d8b611933565b5b611d9884828501611d2a565b91505092915050565b611daa81611aa5565b82525050565b6000602082019050611dc56000830184611da1565b92915050565b600060208284031215611de157611de061192e565b5b6000611def84828501611b7b565b91505092915050565b611e01816119bd565b8114611e0c57600080fd5b50565b600081359050611e1e81611df8565b92915050565b60008060408385031215611e3b57611e3a61192e565b5b6000611e4985828601611b7b565b9250506020611e5a85828601611e0f565b9150509250929050565b600067ffffffffffffffff821115611e7f57611e7e611c2d565b5b611e8882611a39565b9050602081019050919050565b6000611ea8611ea384611e64565b611c8d565b905082815260208101848484011115611ec457611ec3611c28565b5b611ecf848285611cd9565b509392505050565b600082601f830112611eec57611eeb611c23565b5b8135611efc848260208601611e95565b91505092915050565b60008060008060808587031215611f1f57611f1e61192e565b5b6000611f2d87828801611b7b565b9450506020611f3e87828801611b7b565b9350506040611f4f87828801611ac6565b925050606085013567ffffffffffffffff811115611f7057611f6f611933565b5b611f7c87828801611ed7565b91505092959194509250565b60008060408385031215611f9f57611f9e61192e565b5b6000611fad85828601611b7b565b9250506020611fbe85828601611b7b565b9150509250929050565b7f4e487b7100000000000000000000000000000000000000000000000000000000600052602260045260246000fd5b6000600282049050600182168061200f57607f821691505b60208210810361202257612021611fc8565b5b50919050565b7f4552433732313a20617070726f76616c20746f2063757272656e74206f776e6560008201527f7200000000000000000000000000000000000000000000000000000000000000602082015250565b60006120846021836119fe565b915061208f82612028565b604082019050919050565b600060208201905081810360008301526120b381612077565b9050919050565b7f4552433732313a20617070726f76652063616c6c6572206973206e6f7420746f60008201527f6b656e206f776e6572206f7220617070726f76656420666f7220616c6c000000602082015250565b6000612116603d836119fe565b9150612121826120ba565b604082019050919050565b6000602082019050818103600083015261214581612109565b9050919050565b7f4552433732313a2063616c6c6572206973206e6f7420746f6b656e206f776e6560008201527f72206f7220617070726f76656400000000000000000000000000000000000000602082015250565b60006121a8602d836119fe565b91506121b38261214c565b604082019050919050565b600060208201905081810360008301526121d78161219b565b9050919050565b7f4552433732313a20696e76616c696420746f6b656e2049440000000000000000600082015250565b60006122146018836119fe565b915061221f826121de565b602082019050919050565b6000602082019050818103600083015261224381612207565b9050919050565b7f4e487b7100000000000000000000000000000000000000000000000000000000600052601160045260246000fd5b600061228482611aa5565b91507fffffffffffffffffffffffffffffffffffffffffffffffffffffffffffffffff82036122b6576122b561224a565b5b600182019050919050565b7f4552433732313a2061646472657373207a65726f206973206e6f74206120766160008201527f6c6964206f776e65720000000000000000000000000000000000000000000000602082015250565b600061231d6029836119fe565b9150612328826122c1565b604082019050919050565b6000602082019050818103600083015261234c81612310565b9050919050565b600081905092915050565b6000612369826119f3565b6123738185612353565b9350612383818560208601611a0f565b80840191505092915050565b600061239b828561235e565b91506123a7828461235e565b91508190509392505050565b7f4552433732313a207472616e736665722066726f6d20696e636f72726563742060008201527f6f776e6572000000000000000000000000000000000000000000000000000000602082015250565b600061240f6025836119fe565b915061241a826123b3565b604082019050919050565b6000602082019050818103600083015261243e81612402565b9050919050565b7f4552433732313a207472616e7366657220746f20746865207a65726f2061646460008201527f7265737300000000000000000000000000000000000000000000000000000000602082015250565b60006124a16024836119fe565b91506124ac82612445565b604082019050919050565b600060208201905081810360008301526124d081612494565b9050919050565b7f45524337323155524953746f726167653a2055524920736574206f66206e6f6e60008201527f6578697374656e7420746f6b656e000000000000000000000000000000000000602082015250565b6000612533602e836119fe565b915061253e826124d7565b604082019050919050565b6000602082019050818103600083015261256281612526565b9050919050565b60008190508160005260206000209050919050565b60006020601f8301049050919050565b600082821b905092915050565b6000600883026125cb7fffffffffffffffffffffffffffffffffffffffffffffffffffffffffffffffff8261258e565b6125d5868361258e565b95508019841693508086168417925050509392505050565b6000819050919050565b600061261261260d61260884611aa5565b6125ed565b611aa5565b9050919050565b6000819050919050565b61262c836125f7565b61264061263882612619565b84845461259b565b825550505050565b600090565b612655612648565b612660818484612623565b505050565b5b818110156126845761267960008261264d565b600181019050612666565b5050565b601f8211156126c95761269a81612569565b6126a38461257e565b810160208510156126b2578190505b6126c66126be8561257e565b830182612665565b50505b505050565b600082821c905092915050565b60006126ec600019846008026126ce565b1980831691505092915050565b600061270583836126db565b9150826002028217905092915050565b61271e826119f3565b67ffffffffffffffff81111561273757612736611c2d565b5b6127418254611ff7565b61274c828285612688565b600060209050601f83116001811461277f576000841561276d578287015190505b61277785826126f9565b8655506127df565b601f19841661278d86612569565b60005b828110156127b557848901518255600182019150602085019450602081019050612790565b868310156127d257848901516127ce601f8916826126db565b8355505b6001600288020188555050505b505050505050565b7f4552433732313a20617070726f766520746f2063616c6c657200000000000000600082015250565b600061281d6019836119fe565b9150612828826127e7565b602082019050919050565b6000602082019050818103600083015261284c81612810565b9050919050565b7f4552433732313a207472616e7366657220746f206e6f6e20455243373231526560008201527f63656976657220696d706c656d656e7465720000000000000000000000000000602082015250565b60006128af6032836119fe565b91506128ba82612853565b604082019050919050565b600060208201905081810360008301526128de816128a2565b9050919050565b600081519050919050565b600082825260208201905092915050565b600061290c826128e5565b61291681856128f0565b9350612926818560208601611a0f565b61292f81611a39565b840191505092915050565b600060808201905061294f6000830187611b3a565b61295c6020830186611b3a565b6129696040830185611da1565b818103606083015261297b8184612901565b905095945050505050565b60008151905061299581611964565b92915050565b6000602082840312156129b1576129b061192e565b5b60006129bf84828501612986565b91505092915050565b7f4e487b7100000000000000000000000000000000000000000000000000000000600052601260045260246000fd5b7f4552433732313a206d696e7420746f20746865207a65726f2061646472657373600082015250565b6000612a2d6020836119fe565b9150612a38826129f7565b602082019050919050565b60006020820190508181036000830152612a5c81612a20565b9050919050565b7f4552433732313a20746f6b656e20616c7265616479206d696e74656400000000600082015250565b6000612a99601c836119fe565b9150612aa482612a63565b602082019050919050565b60006020820190508181036000830152612ac881612a8c565b905091905056fea264697066735822122085f80053b3619125460895701d985b9c8ce172572b8ae310717ee0131dee995f64736f6c63430008120033",
  "linkReferences": {},
  "deployedLinkReferences": {}
}